{
  "contractName": "DecentralBank",
  "abi": [
    {
      "inputs": [],
      "name": "name",
      "outputs": [
        {
          "internalType": "string",
          "name": "",
          "type": "string"
        }
      ],
      "stateMutability": "view",
      "type": "function",
      "constant": true
    },
    {
      "inputs": [],
      "name": "owner",
      "outputs": [
        {
          "internalType": "address",
          "name": "",
          "type": "address"
        }
      ],
      "stateMutability": "view",
      "type": "function",
      "constant": true
    }
  ],
  "bytecode": "0x60c0604052600e60808190526d446563656e7472616c2042616e6b60901b60a090815261002f9160009190610042565b5034801561003c57600080fd5b50610116565b82805461004e906100db565b90600052602060002090601f01602090048101928261007057600085556100b6565b82601f1061008957805160ff19168380011785556100b6565b828001600101855582156100b6579182015b828111156100b657825182559160200191906001019061009b565b506100c29291506100c6565b5090565b5b808211156100c257600081556001016100c7565b6002810460018216806100ef57607f821691505b6020821081141561011057634e487b7160e01b600052602260045260246000fd5b50919050565b6101e3806101256000396000f3fe608060405234801561001057600080fd5b50600436106100365760003560e01c806306fdde031461003b5780638da5cb5b14610059575b600080fd5b61004361006e565b604051610050919061011f565b60405180910390f35b6100616100fc565b604051610050919061010b565b6000805461007b90610172565b80601f01602080910402602001604051908101604052809291908181526020018280546100a790610172565b80156100f45780601f106100c9576101008083540402835291602001916100f4565b820191906000526020600020905b8154815290600101906020018083116100d757829003601f168201915b505050505081565b6001546001600160a01b031681565b6001600160a01b0391909116815260200190565b6000602080835283518082850152825b8181101561014b5785810183015185820160400152820161012f565b8181111561015c5783604083870101525b50601f01601f1916929092016040019392505050565b60028104600182168061018657607f821691505b602082108114156101a757634e487b7160e01b600052602260045260246000fd5b5091905056fea26469706673582212203454a3f8bcde0a6208c25451a901ba17bd812652584f5a36527385f8bd8aa73764736f6c63430008000033",
  "immutableReferences": {},
  "source": "// SPDX-License-Identifier: MIT\r\npragma solidity '0.8.0';\r\n\r\ncontract DecentralBank {\r\n  string public name = 'Decentral Bank';\r\n  address public owner;\r\n}",
  "sourcePath": "C:/all/solidity/guide-clarian/defi-staking-app/src/contracts/DecentralBank.sol",
  "compiler": {
    "name": "solc",
    "version": "0.8.0+commit.c7dfd78e.Emscripten.clang"
  },
  "schemaVersion": "3.3.4",
  "updatedAt": "2022-02-04T11:26:07.782Z",
  "networkType": "ethereum",
  "devdoc": {
    "kind": "dev",
    "methods": {},
    "version": 1
  },
  "userdoc": {
    "kind": "user",
    "methods": {},
    "version": 1
  }
}