{
  "contractName": "DecentralBank",
  "abi": [
    {
      "inputs": [
        {
          "internalType": "contract RWD",
          "name": "_rwd",
          "type": "address"
        },
        {
          "internalType": "contract Tether",
          "name": "_tether",
          "type": "address"
        }
      ],
      "stateMutability": "nonpayable",
      "type": "constructor"
    },
    {
      "inputs": [
        {
          "internalType": "address",
          "name": "",
          "type": "address"
        }
      ],
      "name": "hasStaked",
      "outputs": [
        {
          "internalType": "bool",
          "name": "",
          "type": "bool"
        }
      ],
      "stateMutability": "view",
      "type": "function",
      "constant": true
    },
    {
      "inputs": [
        {
          "internalType": "address",
          "name": "",
          "type": "address"
        }
      ],
      "name": "isStaking",
      "outputs": [
        {
          "internalType": "bool",
          "name": "",
          "type": "bool"
        }
      ],
      "stateMutability": "view",
      "type": "function",
      "constant": true
    },
    {
      "inputs": [],
      "name": "name",
      "outputs": [
        {
          "internalType": "string",
          "name": "",
          "type": "string"
        }
      ],
      "stateMutability": "view",
      "type": "function",
      "constant": true
    },
    {
      "inputs": [],
      "name": "owner",
      "outputs": [
        {
          "internalType": "address",
          "name": "",
          "type": "address"
        }
      ],
      "stateMutability": "view",
      "type": "function",
      "constant": true
    },
    {
      "inputs": [],
      "name": "rwd",
      "outputs": [
        {
          "internalType": "contract RWD",
          "name": "",
          "type": "address"
        }
      ],
      "stateMutability": "view",
      "type": "function",
      "constant": true
    },
    {
      "inputs": [
        {
          "internalType": "uint256",
          "name": "",
          "type": "uint256"
        }
      ],
      "name": "stakers",
      "outputs": [
        {
          "internalType": "address",
          "name": "",
          "type": "address"
        }
      ],
      "stateMutability": "view",
      "type": "function",
      "constant": true
    },
    {
      "inputs": [
        {
          "internalType": "address",
          "name": "",
          "type": "address"
        }
      ],
      "name": "stakingBalance",
      "outputs": [
        {
          "internalType": "uint256",
          "name": "",
          "type": "uint256"
        }
      ],
      "stateMutability": "view",
      "type": "function",
      "constant": true
    },
    {
      "inputs": [],
      "name": "tether",
      "outputs": [
        {
          "internalType": "contract Tether",
          "name": "",
          "type": "address"
        }
      ],
      "stateMutability": "view",
      "type": "function",
      "constant": true
    },
    {
      "inputs": [
        {
          "internalType": "uint256",
          "name": "amount",
          "type": "uint256"
        }
      ],
      "name": "depositTokens",
      "outputs": [],
      "stateMutability": "nonpayable",
      "type": "function"
    },
    {
      "inputs": [],
      "name": "issueRewards",
      "outputs": [],
      "stateMutability": "nonpayable",
      "type": "function"
    },
    {
      "inputs": [],
      "name": "unstakeTokens",
      "outputs": [],
      "stateMutability": "nonpayable",
      "type": "function"
    }
  ],
  "bytecode": "0x60c0604052600e60808190526d446563656e7472616c2042616e6b60901b60a090815261002f916000919061009c565b5034801561003c57600080fd5b50604051610a62380380610a6283398101604081905261005b91610135565b600280546001600160a01b039384166001600160a01b03199182161790915560038054929093169181169190911790915560018054909116331790556101c1565b8280546100a89061016e565b90600052602060002090601f0160209004810192826100ca5760008555610110565b82601f106100e357805160ff1916838001178555610110565b82800160010185558215610110579182015b828111156101105782518255916020019190600101906100f5565b5061011c929150610120565b5090565b5b8082111561011c5760008155600101610121565b60008060408385031215610147578182fd5b8251610152816101a9565b6020840151909250610163816101a9565b809150509250929050565b60028104600182168061018257607f821691505b602082108114156101a357634e487b7160e01b600052602260045260246000fd5b50919050565b6001600160a01b03811681146101be57600080fd5b50565b610892806101d06000396000f3fe608060405234801561001057600080fd5b50600436106100a95760003560e01c80638da5cb5b116100715780638da5cb5b14610129578063a5ce413b14610131578063b0370e0c1461013b578063c93c8f3414610143578063dd49756e14610156578063fd5e6dd114610169576100a9565b806306fdde03146100ae5780631a8972d3146100cc57806345bc78ab146100e15780635efc071a146101015780636f49712b14610109575b600080fd5b6100b661017c565b6040516100c391906106ce565b60405180910390f35b6100d461020a565b6040516100c39190610672565b6100f46100ef36600461060c565b610219565b6040516100c391906107af565b6100d461022b565b61011c61011736600461060c565b61023a565b6040516100c391906106c3565b6100d461024f565b61013961025e565b005b610139610340565b61011c61015136600461060c565b610473565b61013961016436600461065a565b610488565b6100d461017736600461065a565b6105e2565b60008054610189906107f0565b80601f01602080910402602001604051908101604052809291908181526020018280546101b5906107f0565b80156102025780601f106101d757610100808354040283529160200191610202565b820191906000526020600020905b8154815290600101906020018083116101e557829003601f168201915b505050505081565b6002546001600160a01b031681565b60056020526000908152604090205481565b6003546001600160a01b031681565b60076020526000908152604090205460ff1681565b6001546001600160a01b031681565b33600090815260056020526040902054806102945760405162461bcd60e51b815260040161028b90610750565b60405180910390fd5b336000818152600560209081526040808320839055600790915290819020805460ff19169055600354905163a9059cbb60e01b81526001600160a01b039091169163a9059cbb916102ea919085906004016106aa565b602060405180830381600087803b15801561030457600080fd5b505af1158015610318573d6000803e3d6000fd5b505050506040513d601f19601f8201168201806040525081019061033c919061063a565b5050565b6001546001600160a01b0316331461036a5760405162461bcd60e51b815260040161028b9061077a565b60005b6004548110156104705760006004828154811061039a57634e487b7160e01b600052603260045260246000fd5b60009182526020808320909101546001600160a01b0316808352600590915260408220549092506103cd906009906107d0565b9050801561045b5760025460405163a9059cbb60e01b81526001600160a01b039091169063a9059cbb9061040790859085906004016106aa565b602060405180830381600087803b15801561042157600080fd5b505af1158015610435573d6000803e3d6000fd5b505050506040513d601f19601f82011682018060405250810190610459919061063a565b505b505080806104689061082b565b91505061036d565b50565b60066020526000908152604090205460ff1681565b600081116104a85760405162461bcd60e51b815260040161028b90610721565b6003546040516323b872dd60e01b81526001600160a01b03909116906323b872dd906104dc90339030908690600401610686565b602060405180830381600087803b1580156104f657600080fd5b505af115801561050a573d6000803e3d6000fd5b505050506040513d601f19601f8201168201806040525081019061052e919061063a565b50336000908152600560205260408120805483929061054e9084906107b8565b90915550503360009081526006602052604090205460ff166105c5576004805460018181019092557f8a35acfbc15ff81a39ae7d344fd709f28e8600b4aa8c65c6b64bfe7fe36bd19b0180546001600160a01b031916339081179091556000908152600660205260409020805460ff191690911790555b50336000908152600760205260409020805460ff19166001179055565b600481815481106105f257600080fd5b6000918252602090912001546001600160a01b0316905081565b60006020828403121561061d578081fd5b81356001600160a01b0381168114610633578182fd5b9392505050565b60006020828403121561064b578081fd5b81518015158114610633578182fd5b60006020828403121561066b578081fd5b5035919050565b6001600160a01b0391909116815260200190565b6001600160a01b039384168152919092166020820152604081019190915260600190565b6001600160a01b03929092168252602082015260400190565b901515815260200190565b6000602080835283518082850152825b818110156106fa578581018301518582016040015282016106de565b8181111561070b5783604083870101525b50601f01601f1916929092016040019392505050565b60208082526015908201527410d85b9b9bdd081cdd185ad9480c08185b5bdd5b9d605a1b604082015260600190565b60208082526010908201526f4e6f207374616b652062616c616e636560801b604082015260600190565b6020808252818101527f4f6e6c7920746865206f776e65722063616e2069737375652072657761726473604082015260600190565b90815260200190565b600082198211156107cb576107cb610846565b500190565b6000826107eb57634e487b7160e01b81526012600452602481fd5b500490565b60028104600182168061080457607f821691505b6020821081141561082557634e487b7160e01b600052602260045260246000fd5b50919050565b600060001982141561083f5761083f610846565b5060010190565b634e487b7160e01b600052601160045260246000fdfea2646970667358221220b423bfa65cd93e604e2360d8a18bc66add3d2544c8e2fb330a91fbaa3e756d9664736f6c63430008000033",
  "immutableReferences": {},
  "source": "// SPDX-License-Identifier: MIT\r\npragma solidity '0.8.0';\r\nimport \"./RWD.sol\";\r\nimport \"./Tether.sol\";\r\n\r\n\r\ncontract DecentralBank {\r\n  string public name = 'Decentral Bank';\r\n  address public owner;\r\n  RWD public rwd;\r\n  Tether public tether;\r\n\r\n  address[] public stakers;\r\n\r\n  mapping(address => uint256) public stakingBalance;\r\n  mapping(address => bool) public hasStaked;\r\n  mapping(address => bool) public isStaking;\r\n\r\n  constructor(RWD _rwd, Tether _tether) {\r\n    rwd = RWD(_rwd);\r\n    tether = Tether(_tether);\r\n    owner = msg.sender;\r\n  }\r\n\r\n  // Staking function\r\n  function depositTokens(uint256 amount) public {\r\n    require(amount > 0, \"Cannot stake 0 amount\");\r\n    tether.transferFrom(msg.sender, address(this), amount);\r\n    stakingBalance[msg.sender] += amount;\r\n\r\n    if(!hasStaked[msg.sender]) {\r\n      stakers.push(msg.sender);\r\n      hasStaked[msg.sender] = true;\r\n    }\r\n\r\n    isStaking[msg.sender] = true;\r\n  }\r\n\r\n  function issueRewards() public {\r\n    require (msg.sender == owner, \"Only the owner can issue rewards\");\r\n\r\n    for(uint256 i; i < stakers.length; i++) {\r\n      address recipient = stakers[i];\r\n      uint256 reward = stakingBalance[recipient] / 9; // 1/9th of staking balance\r\n      if (reward > 0) {\r\n        rwd.transfer(recipient, reward);\r\n      }\r\n    }\r\n  }\r\n\r\n  function unstakeTokens() public {\r\n    uint256 balance = stakingBalance[msg.sender];\r\n    require (balance > 0, \"No stake balance\");\r\n\r\n    stakingBalance[msg.sender] = 0;\r\n    isStaking[msg.sender] = false;\r\n\r\n    tether.transfer(msg.sender, balance);\r\n  }\r\n}",
  "sourcePath": "C:/all/solidity/guide-clarian/defi-staking-app/src/contracts/DecentralBank.sol",
  "compiler": {
    "name": "solc",
    "version": "0.8.0+commit.c7dfd78e.Emscripten.clang"
  },
  "schemaVersion": "3.3.4",
  "updatedAt": "2022-02-18T05:28:05.873Z",
  "networkType": "ethereum",
  "devdoc": {
    "kind": "dev",
    "methods": {},
    "version": 1
  },
  "userdoc": {
    "kind": "user",
    "methods": {},
    "version": 1
  }
}