{
  "contractName": "Tether",
  "abi": [
    {
      "inputs": [],
      "name": "decimals",
      "outputs": [
        {
          "internalType": "uint256",
          "name": "",
          "type": "uint256"
        }
      ],
      "stateMutability": "view",
      "type": "function",
      "constant": true
    },
    {
      "inputs": [],
      "name": "name",
      "outputs": [
        {
          "internalType": "string",
          "name": "",
          "type": "string"
        }
      ],
      "stateMutability": "view",
      "type": "function",
      "constant": true
    },
    {
      "inputs": [],
      "name": "symbol",
      "outputs": [
        {
          "internalType": "string",
          "name": "",
          "type": "string"
        }
      ],
      "stateMutability": "view",
      "type": "function",
      "constant": true
    },
    {
      "inputs": [],
      "name": "totalSupply",
      "outputs": [
        {
          "internalType": "uint256",
          "name": "",
          "type": "uint256"
        }
      ],
      "stateMutability": "view",
      "type": "function",
      "constant": true
    }
  ],
  "bytecode": "0x60c060405260066080819052652a32ba3432b960d11b60a09081526100279160009190610079565b50604080518082019091526004808252631554d11560e21b602090920191825261005391600191610079565b5069d3c21bcecceda1000000600255601260035534801561007357600080fd5b5061014d565b82805461008590610112565b90600052602060002090601f0160209004810192826100a757600085556100ed565b82601f106100c057805160ff19168380011785556100ed565b828001600101855582156100ed579182015b828111156100ed5782518255916020019190600101906100d2565b506100f99291506100fd565b5090565b5b808211156100f957600081556001016100fe565b60028104600182168061012657607f821691505b6020821081141561014757634e487b7160e01b600052602260045260246000fd5b50919050565b6102088061015c6000396000f3fe608060405234801561001057600080fd5b506004361061004c5760003560e01c806306fdde031461005157806318160ddd1461006f578063313ce5671461008457806395d89b411461008c575b600080fd5b610059610094565b604051610066919061013b565b60405180910390f35b610077610122565b604051610066919061018e565b610077610128565b61005961012e565b600080546100a190610197565b80601f01602080910402602001604051908101604052809291908181526020018280546100cd90610197565b801561011a5780601f106100ef5761010080835404028352916020019161011a565b820191906000526020600020905b8154815290600101906020018083116100fd57829003601f168201915b505050505081565b60025481565b60035481565b600180546100a190610197565b6000602080835283518082850152825b818110156101675785810183015185820160400152820161014b565b818111156101785783604083870101525b50601f01601f1916929092016040019392505050565b90815260200190565b6002810460018216806101ab57607f821691505b602082108114156101cc57634e487b7160e01b600052602260045260246000fd5b5091905056fea26469706673582212202ad08b37d3fc45635184adc4f3a862f481c48164bf91a5f08f077b976e1310eb64736f6c63430008000033",
  "immutableReferences": {},
  "source": "// SPDX-License-Identifier: MIT\r\npragma solidity '0.8.0';\r\n\r\ncontract Tether {\r\n  string public name = 'Tether';\r\n  string public symbol = 'USDT';\r\n  uint256 public totalSupply = 10 ** 6 * 10 ** 18; //one million\r\n  uint256 public decimals = 18;\r\n}",
  "sourcePath": "C:/all/solidity/guide-clarian/defi-staking-app/src/contracts/Tether.sol",
  "compiler": {
    "name": "solc",
    "version": "0.8.0+commit.c7dfd78e.Emscripten.clang"
  },
  "schemaVersion": "3.3.4",
  "updatedAt": "2022-02-04T07:35:49.914Z",
  "networkType": "ethereum",
  "devdoc": {
    "kind": "dev",
    "methods": {},
    "version": 1
  },
  "userdoc": {
    "kind": "user",
    "methods": {},
    "version": 1
  }
}